:0900000002094312000E8F99223F
:10000B000202A178457600087664200A077846E656
:07001B00184670F6C20A222C
:10002300020218300D27E4FF120003E4FF12041B41
:10003300E4FF120420E4FF120425E4FFFE12042A65
:10004300E4FF12042FE4FF120434120349120439AB
:100053001203E2752602E4F52A75294BF528F527E4
:10006300FF7E807D70FC1202617BFF7A0979CF12DB
:10007300049E7F157ECD7D5B7C0712017F75250075
:100083007526007527367BFF7A0979E012049E7F77
:10009300157ECD7D5B7C0712017F752500752600DB
:1000A3007527367BFF7A0979E912049E7F157ECD89
:1000B3007D5B7C0712017F75250075260075273649
:1000C3007BFF7A0979F212049E7F157ECD7D5B7CDE
:1000D3000712017F7525007526007527367BFF7A89
:1000E3000979FB12049E7F157ECD7D5B7C0712018F
:1000F3007F7525007526007527367BFF7A0A7904FC
:1001030012049E7F157ECD7D5B7C0712017F7525D2
:10011300007526007527367BFF7A0A790D12049E37
:100123007F157ECD7D5B7C0712017F7525007526CB
:10013300007527367BFF7A0A791612049E7F157E97
:10014300CD7D5B7C0712017F752500752600752721
:10015300367BFF7A0A791F12049E7F157ECD7D5B65
:100163007C0712017F7525007526007527367BFFF6
:100173007A0A792812049E12037B80FB8F258E2432
:100183008D238C22E4752D01F52CF52BF52A752E84
:100193000DE52E607F152EAB2DAA2CA92BA82AAF17
:1001A30025AE24AD23AC22120823E47B0AFAF9F826
:1001B300120823AF03E48F29F528F527F5267436B3
:1001C300252EF8E6F52FC39430400674D0252FF57D
:1001D3002FE529252FF52FD394094008E52E600438
:1001E3002435F806E52F75F00A8485F02FE52F24D2
:1001F30030FF7436252EF8A607AF2DAE2CAD2BACF1
:100203002AE47B0AFAF9F81207988F2D8E2C8D2B8E
:100213008C2A219422C0E0C0F0C083C082C0D07574
:10022300D008309824C2987863E675F09684E5F098
:10023300F6E62400F582E43400F583E599F00679C7
:1002430063E77861667002D20C309904C299D20ACE
:100253001203C9D0D0D082D083D0F0D0E0328F2522
:100263008E248D238C22AF26AB07E4FAF9F8AF2551
:10027300120823AB2AAA29A928A8271208237E96A5
:10028300900000E4F0A3DEFCC20BE47863F678612F
:10029300F608F6C20CD20AFE120315D29922C0E068
:1002A300C0D075D0181203EF502DE4FFEF25E024E2
:1002B30044F9E71947600DEF25E02443F808E616F3
:1002C300187001160FBF07E47857E660031680071E
:1002D300785776641202DFD0D0D0E032785606E643
:1002E300D3943B402CE4F61806E6D3943B4022E437
:1002F300F61806E6D394174018E4F61806E6D394E6
:100303001E400EE4F61806E6D3940C4004E4F618F7
:1003130006228E2B8F2C5387BF75985053877F757A
:10032300BAA143A240E4F5BD75BEF075BF0375BD28
:10033300035391FE4392015391FD5392FD53B8EF42
:1003430043B710D2AC227525FF75260A7527567858
:1003530054E6752800F52908E6752A00F52B08E60A
:10036300752C00F52D7B007A007958120498E478F7
:1003730060F6FB7A007958227861E6FF786366605D
:1003830022C2ACEFC394964004E47861F6D20B78B2
:1003930061E62400F582E43400F583E008F61806EC
:1003A300D2AC22C20B225389F0438901538FFE75CD
:1003B3008C71758A9953B8FD53B7FD43B80243B79F
:1003C30002D2A9D28C22E5BA30E30353BAF7E5BAD5
:1003D30030E20353BAFBE5BA30E10353BAFD22120C
:1003E30003A9E4FBFDFF1203FA020405758C717582
:1003F3008A99D209A209227854A60708A60508A655
:1004030003227851A60708A60508A603227F0D78C4
:10041300367430F608DFFC227854A607227855A6F6
:1004230007227856A607227851A607227852A607F4
:10043300227853A60722D2AF22E5312425F8E60518
:10044300312278223007027825E475F00112090D74
:100453000208B52000EB7F2ED2008018EF540F2442
:1004630090D43440D4FF30040BEF24BFB41A0050AF
:10047300032461FFE532600215320535E53570026C
:10048300053430070D7822E475F00112090DEF02EF
:1004930008FB020A747403D2078003E4C207F53130
:1004A3008B228A238924E4F532F534F535E532606D
:1004B300077F2012047780F57533FFC201C200C2A3
:1004C30002C203C205C206C208120445FF700D3002
:1004D30007057F00120488AF35AE3422B4255FC20E
:1004E300D5C204120445FF24D0B40A00501A75F093
:1004F3000A783230D50508B6FF0106C6A426F620D1
:10050300D5047002D20380D924CFB41A00EF50046B
:10051300C2E5D204020688D20180C6D20080C0D2CE
:100523000280BCD2D580BAD20580B47F2012047772
:100533002002077401B5320040F112043CFF12049B
:10054300770204B0D208D206809512043CFB120451
:100553003CFA12043CF94A4B700679597A077BFF3F
:1005630020022EE532602A7E008E827583001208F7
:10057300CE60060EEE653370F0C2D5EBC0E0EAC084
:10058300E0E9C0E0EE1206CFD0E0F9D0E0FAD0E027
:10059300FB1208B5FF60AAEBC0E0EAC0E0E9C0E0E7
:1005A300120477D0E02401F9D0E03400FAD0E0FB64
:1005B300E5330460DCD533D980877BFF7A0679CBBA
:1005C300D202809C791080027908C206C208800892
:1005D300D2D5790A8004790AC2D5E533047002F5CD
:1005E30033E4FAFDFEFF12043CFC7B0820011312E6
:1005F300043CFD7B1030000A12043CFE12043CFF55
:100603007B20EC3382D592D55013C3E43000069F90
:10061300FFE49EFEE42001039DFDE49CFCE4CBF893
:10062300C201EC700CCFCECDCCE824F8F870F38087
:1006330017C3EF33FFEE33FEED33FDEC33FCEB3347
:10064300FB994002FB0FD8E9EB300105F8D0E0C479
:1006530048B201C0E00AEC4D4E4F78207B0070C2D7
:10066300EAB5330040BCC0E01206D1D0F0D0E020A0
:100673000104C4C0E0C4B201C0F0120460D0F0D5DC
:10068300F0EB0204B012091D054D5305C758051EB2
:100693004C051A4205CB4F05D34405D349053343D3
:1006A30005D95505BD4605BD4505BD470779500527
:1006B300222D05262E05492B052A230547200762EF
:1006C3002A04E248000005413F3F3F00790AA2D5D2
:1006D300200314300509B910020404B9080104A267
:1006E300D52006025001042002689202B532005060
:1006F30034C0E07F203003197F30A20272067205F6
:10070300500F120728C202C206C205C2087F3080FA
:100713000F300503E9C0E0120477300503D0E0F998
:10072300D0E0B532CC3005177F30B9100C12047706
:100733007F583004077F788003B9080312047730A9
:1007430002057F2D0204777F202008F87F2B2006E7
:10075300F322920280CF286E756C6C2900D20112AD
:10076300043C3001F8C201783230D50108F60204A6
:10077300E22D5043495812043C2403B405004001C0
:10078300E490077493120468743A120468D20375F0
:1007930032040205C7E88FF0A4CC8BF0A42CFCE94B
:1007A3008EF0A42CFC8AF0EDA42CFCEA8EF0A4CDF0
:1007B300A8F08BF0A42DCC3825F0FDE98FF0A42C04
:1007C300CD35F0FCEB8EF0A4FEA9F0EB8FF0A4CFB7
:1007D300C5F02ECD39FEE43CFCEAA42DCE35F0FD68
:1007E300E43CFC2275F008758200EF2FFFEE33FE28
:1007F300CD33CDCC33CCC58233C5829BED9AEC99F6
:10080300E58298400CF582EE9BFEED9AFDEC99FC97
:100813000FD5F0D6E4CEFBE4CDFAE4CCF9A88222DE
:10082300B800C1B90059BA002DEC8BF084CFCECDFE
:10083300FCE5F0CBF97818EF2FFFEE33FEED33FD37
:10084300EC33FCEB33FB10D703994004EB99FB0F1C
:10085300D8E5E4F9FA227818EF2FFFEE33FEED33F3
:10086300FDEC33FCC933C910D7059BE99A4007EC6B
:100873009BFCE99AF90FD8E0E4C9FAE4CCFB2275B2
:10088300F010EF2FFFEE33FEED33FDCC33CCC83346
:10089300C810D7079BEC9AE899400AED9BFDEC9AA8
:1008A300FCE899F80FD5F0DAE4CDFBE4CCFAE4C820
:1008B300F922BB010689828A83E0225002E722BB28
:1008C300FE02E32289828A83E49322BB010CE58240
:1008D30029F582E5833AF583E0225006E92582F87B
:1008E300E622BBFE06E92582F8E222E58229F582AB
:1008F300E5833AF583E49322BB010689828A83F078
:10090300225002F722BBFE01F322FAE6FB0808E6B7
:10091300F925F0F618E6CA3AF622D083D082F8E435
:10092300937012740193700DA3A393F8740193F55C
:10093300828883E4737402936860EFA3A3A380DFC8
:1009430078FFE4F6D8FD75816302098A020026E484
:1009530093A3F8E493A34003F68001F208DFF48045
:1009630029E493A3F85407240CC8C333C4540F4495
:1009730020C8834004F456800146F6DFE4800B016F
:1009830002040810204080900AB8E47E019360BC02
:10099300A3FF543F30E509541FFEE493A360010E07
:1009A300CF54C025E060A840B8E493A3FAE493A32E
:1009B300F8E493A3C8C582C8CAC583CAF0A3C8C54F
:1009C30082C8CAC583CADFE9DEE780BE4D6F727491
:1009D30061676520636F756E7465720A00313A2032
:1009E300253133730A00323A20253133730A003339
:1009F3003A20253133730A00343A20253133730A00
:100A030000353A20253133730A00363A2025313335
:100A1300730A00373A20253133730A00383A202508
:100A23003133730A00393A20253133730A004C4FAE
:100A33004F505F5445535400554152540048415060
:100A4300495F52454300484150495F534E44004C6F
:100A5300454400252E32693A252E32693A252E3235
:100A63006900FF0A31FF0A3BFF0A40FF0A49FF0AF8
:100A730052EFB40A07740D120A7F740A309811A852
:100A830099B8130CC2983098FDA899C298B811F67A
:100A93003099FDC299F59922554E4B4E4F574E0052
:100AA30043353152443200433531454432004C50D2
:100AB3004339323200C10D08100A9B0AA30AAA0A5D
:020AC300B10080
:04FFF00023001E00CC
:08FFF800000000000000000001
:00000001FF
